:100000000010002065020000910200009102000033
:100010009102000091020000910200009102000094
:100020009102000091020000910200009102000084
:10003000910200009102000091020000C53300000F
:100040009102000091020000910200009102000064
:100050009102000091020000910200009102000054
:100060009102000091020000910200009102000044
:10007000D50F0000910200009102000091020000E3
:1000800091020000910200009102000010B5064CA0
:100090002378002B07D1054B002B02D0044800E049
:1000A00000BF0123237010BDE80000200000000005
:1000B0001C65000008B5084B002B03D00748084911
:1000C00000E000BF07480368002B00D108BD064BC5
:1000D000002BFBD09847F9E7000000001C650000EA
:1000E000EC000020E000002000000000164B002B78
:1000F00000D1144B9D46402292029A1A924600214A
:100100008B460F461348144A121A04F056FE0F4B42
:10011000002B00D098470E4B002B00D098470020B2
:10012000002104000D000D48002802D00C4800E01A
:1001300000BF04F013FE2000290003F063FA04F06E
:10014000F3FCC04600000800001000200000000082
:1001500000000000E8000020AC04002000000000C7
:100160000000000008B5042103200A1C012302F04E
:1001700015FD01220320131C052102F00FFD0020B4
:1001800009210422012302F009FD0321024A536DD3
:100190000B43536508BDC0460040084030B585B0EC
:1001A0006A46154B23CB23C200251B6813481360F6
:1001B000134B01211D60134B1D6002F047FA1248DA
:1001C000012102F043FA1148012102F03FFA1048E0
:1001D000012102F03BFA0F48062102F0D3FBE12394
:1001E0000D485B026946029302F076FFFFF7BAFF03
:1001F000281C05B030BDC046945B0000408104005F
:10020000040100200801002000720400700716009D
:100210000023020003001C000040084008B543070B
:1002200001D5FFF7BBFF002008BD000008B50B4853
:10023000012102F00BFA0A48012102F007FA02201C
:100240000A210422002302F0A9FC02200B2104222F
:10025000002302F0A3FC002008BDC046408104003A
:1002600000720400064880470649074A074B9B1A5C
:1002700003DD043BC858D050FBDCFFF737FF00001C
:10028000590300002865000000000020E400002061
:10029000FEE7C0460048704700366E01F0231E4A54
:1002A0009B01D16A0B40802149018B422ED08021D5
:1002B00089018B4205D0802109018B4204D1174B63
:1002C00000E0174B186825E0E023D268DB001340FC
:1002D00080229200934213D007D8002B12D0013A0B
:1002E000FF3A934210D10F4814E0C022920093428B
:1002F00004D00132FF3293420BD005E00A4809E0F6
:100300000A4807E00A4805E0002003E080200002D8
:1003100000E008487047C04600800C400400002000
:100320000000002040B56400809FD500C0D8A70021
:10033000804F1200406F400108B5FFF7AFFF044B3C
:100340005A680F231340D840024B186008BDC046BE
:1003500000800C40F40200207047802000027047AB
:10036000FA20800070470000014B18687047C046B3
:100370000000002010B5084B1C78002C01D0002094
:1003800009E001221A70054BE358002BF7D098477B
:1003900004340028F7D010BD3C01002008000020E4
:1003A00008B50A4A031C1278002A0AD000280ADC81
:1003B0002C225343081C0649C91804F0F5FC002000
:1003C00002E0044800E0044808BDC0463C010020AB
:1003D00010010020050011800200118008B50B4BB0
:1003E0001B78002B0ED00A4A1368002B0CDC011C72
:1003F000581C10602C2253430648C01804F0D4FC4B
:10040000002002E0044800E0044808BD3C01002050
:100410000C01002010010020050011800100118056
:1004200030B580290ED1084C084925681201AA1858
:10043000803100208A4202D91860054803E01D601F
:10044000226000E0034830BD100000203D01002084
:1004500001001180020011800048704704001180E3
:1004600008B500F021F900F0DDF8002008BD70B5F6
:1004700000240E1C1D1C20013018AC4205D00021A8
:10048000102204F09AFC0134F5E7002070BDF7B5A6
:1004900004200F1C0B2100F029F9062000F009F9B7
:1004A000089B01225D1C6B46ADB29E1D2B021343BF
:1004B000301C02213380002400F0D6F8099B200173
:1004C00038189C4215D0102100F0CEF8099B013B52
:1004D0009C4202D101235B4204E0FF226B1C1B19EA
:1004E0001B021343301C02213380013400F0BCF89E
:1004F000E4E7022000F0DDF80B21042000F036F9DB
:100500000020FEBD08B50821002000F0EFF80A2108
:10051000002000F0EBF808BD10B50C1E02D0FFF76C
:10052000F1FF07E0081C0A2100F020F9201C082137
:1005300000F01CF9002010BD30B58DB000F0B4F80B
:1005400000F070F800F0BAF800220F21131C02200E
:1005500000F0BEF800220721131C032000F0B8F8B9
:1005600000220B21131C042000F0B2F80020082107
:10057000021C031C00F0ACF800200A21021C031C22
:1005800000F0A6F800220A21131C042000F0A0F8B5
:1005900004200A21402200F029F9041E30D11A4B10
:1005A00001A80193012303747F334360C360836018
:1005B000164B44744361164B8361164BC361164B53
:1005C0000362164B4362164B8362FFF707FF041E5C
:1005D00016D1FFF797FF0B21042000F087F80620C3
:1005E00000F067F86B460425981C0221058000F096
:1005F0003BF8022000F05DF8281C0B2100F0B6F853
:10060000201C0DB030BDC046A45B000019050000E1
:1006100021040000590400008F0400006F04000052
:100620006104000030B587B06A460A4B23CB23C271
:1006300023CB23C2084D0948012102F007F8084BDB
:10064000281C6946029302F045FE0020054B6B65AD
:1006500007B030BDBC5B000000C4004000320400A5
:10066000E06735000A03000038B5041C0D1C002D9E
:1006700011D0012D01D0E30706D52178094802F0F9
:1006800067FE013D0134F2E72188064802F065FE6D
:10069000023D0234EBE7034B1B699B06FBD50020B0
:1006A00038BDC04600C4004008B501F09BFC0020E6
:1006B00008BD08B501F06EFD002008BD08B503486F
:1006C000012101F0C3FF002008BDC04600720400F4
:1006D00010B5141E05D1C0B2042202F05FFA201C2E
:1006E00000E0014810BDC0460100138038B5C3B218
:1006F000041C0D1C002B0ED0012B0ED0022B0ED093
:10070000032B0ED0042B0ED0053B59424B413F2208
:100710005B421A4008E00D4A06E00D4A04E00D4A2B
:1007200002E00D4A00E00D4A2A41D30703D40C48E9
:100730000C4901F035FE0123AB401D1C2423002091
:10074000E4B25C43084BE418256138BD7FF7000034
:10075000F8790000FFFF0000FF010000F0FF00003B
:10076000D75B00005A0300000060004038B5C3B2F8
:10077000041C0D1C002B0ED0012B0ED0022B0ED012
:10078000032B0ED0042B0ED0053B59424B413F2288
:100790005B421A4008E00D4A06E00D4A04E00D4AAB
:1007A00002E00D4A00E00D4A2A41D30703D40C4869
:1007B0000C4901F0F5FD0123AB401D1C2423002052
:1007C000E4B25C43084BE418656038BD7FF7000075
:1007D000F8790000FFFF0000FF010000F0FF0000BB
:1007E000D75B00002D03000010600040F0B585B01D
:1007F000041C0D1C28480121019201F027FFA021B3
:1008000002208903012202F095FC2449244B8A68C6
:10081000012713408022920013438B608B68FD3ABE
:10082000FF3A13438B60291C00250023E0B202F03D
:10083000B5F91C4903AC0322201C183104F0B4FAAA
:10084000194E1A48012101F001FF1948092102F04F
:1008500099F8301C022101F073FE0121301C01F0D7
:10086000F5FE201C25706570A77002F0C5FC301CD9
:1008700001F0E0FF019902F053FF411E0902090A4D
:10088000281C02F08BFC02F0C7FC381C02F0A0FC14
:10089000281C05B0F0BDC0460042040000C00C405A
:1008A000FFF8FFFFBC5B00006006100000230200A1
:1008B00002001A00F0B585B0041E03D148482D216E
:1008C00001F06EFD4748012101F0C0FE464B226851
:1008D0009A4211D14548012101F0B8FE2079617991
:1008E0000A22012302F05AF9A079E1790A220123B0
:1008F00002F054F9092704E03948442101F050FD81
:100900006CE025796679002D0ED0012D0ED0022DD8
:100910000ED0032D0ED0042D0ED06A1F5042504130
:100920003F234242134008E0314B06E0314B04E0E4
:10093000314B02E0314B00E0314B3341DB0703D454
:100940003048314901F02CFD0123B3401E1C242303
:100950005D432E4BED182E6025796679002D0ED063
:10096000012D0ED0022D0ED0032D0ED0042D0ED051
:100970006A1F504250413F234242134008E01C4B43
:1009800006E01C4B04E01C4B02E01C4B00E01C4B3F
:100990003341DB0703D41B481D4901F001FD01224F
:1009A000131CB3401E1C24235D43184B013FED185C
:1009B0006E60002FA5D10321237A20681B020B4310
:1009C00083636B461A705A706A46236969460293BC
:1009D000E3680193237D137302F0A6F905B0F0BD1F
:1009E0003B5C00004081040000A0004000B2040015
:1009F0007FF70000F8790000FFFF0000FF01000012
:100A0000F0FF0000D75B00005A03000010600040B8
:100A10002D03000038B5051C02F0D0FA054C40B299
:100A2000012806D1013C002C03D0281C02F0A8F9B3
:100A3000F5E738BDE193040000207047FEE780230E
:100A400000209B014B6070470120704700207047D9
:100A5000F8B50F1C0D1C8E18EC1BB54203D000F02E
:100A600065F8431C04D1201E05D10120404202E05C
:100A700028700135F0E7F8BD70B50E1C151C0C1C74
:100A8000A31BAB4204DA207800F054F80134F7E7F6
:100A9000281C70BD38B5104B021C1968002901D103
:100AA0000E49196018688218EFF308818A4211D93B
:100AB0000B4B1B68986804F04DF80A4C051C201C71
:100AC00004F0DAFA211C021C281CFFF7D5FF0120D4
:100AD00004F02AF81A6038BDC0010020B0040020DC
:100AE000D40000204F5C000010B58EB0002003A998
:100AF000FFF756FC041E11D1012301A809490194F6
:100B00000471437101F0BAF9041E07D1064B211C90
:100B10001B6802229868231C04F0DCF9201C0EB02C
:100B200010BDC046C4010020D40000200120404276
:100B30007047000010B5064B041C1868002804D04C
:100B4000211C01F007FA201C01E00120404210BDE9
:100B5000C4010020F7B5234B191CA03100221C7FD3
:100B60005A7794423AD01C685D6800900192954291
:100B700001D1844206D9009E019FA41BBD411C6087
:100B80005D602BE0DA7F002A01D11A7721E09E68B0
:100B9000DF68A4197D41009E019FA41BBD411E6911
:100BA0001C605D605A69002E06DDB2185A61F32A96
:100BB0000FD90126002706E0921B5A61F32A08D9B3
:100BC00001267642F717A4197D411C605D60F43A56
:100BD0005A619A69002A01D001225A7728338B4240
:100BE000BCD1F7BDD001002038B50425074C18341E
:100BF0006379002B04D00420A168401B2368984728
:100C0000013D2834002DF3D138BDC046D00100206D
:100C100082B0074B1A1C5968090253680193019B63
:100C20001B025B1A1B0A8342F7D302B07047C0460F
:100C30000000084070B5012252420024131C1B49D9
:100C400009190D7F002D08D00D6849688B4202D824
:100C500003D1AA4201D92A1C0B1C2834A02CEED1A6
:100C60000021134C2170511C01D1591C1DD0002BA7
:100C700002D1104B9A4200D90E4A0F4B0F491B78F4
:100C8000002B03D103021B0A0B6000E00860022660
:100C90000B4D81180902AE61090A002002F07EFAAC
:100CA00001232370EB691E43EE6170BDD00100206B
:100CB000C80100209BFFFF00CA0100207402002031
:100CC0000000084038B5051C01F0E4FE002228238E
:100CD00053430A49CB189C7F002C04D00132042ACC
:100CE000F5D1074C06E0002D03D0012199772A6049
:100CF00000E0044C01F0D2FE201C38BDD0010020E1
:100D0000011000F0041000F038B5FA22450CC403BD
:100D10000023201C291C120180185941FA220023AB
:100D2000520102F09DFE041C0D1C002D08D0094844
:100D3000FFF76EFF0123084A5B42A4185D41F4E708
:100D4000044B9C42F3D8002C02D0201CFFF760FF1C
:100D5000002038BD9BFFFF00650000FF38B51A4B2F
:100D60001C78002C2ED101251848291C1D7001F07B
:100D70006DFC1748022101F005FE1648082101F01C
:100D8000DFFB291C134801F061FC134802F034FA20
:100D90000721124BDA698A43DA61996102F03CFA61
:100DA0008022C0210E4B520149005A500D481A6052
:100DB000211CA02204F001F80B4B1C700B4B1C7083
:100DC0000B4B1C60002038BDC9010020002302002D
:100DD00002001A0060061000695C00000000084074
:100DE00000E100E0D0010020CA010020C80100207D
:100DF00070020020F0B587B001900591151C1F1CF2
:100E0000032800D9CEE0282401F044FE019B049081
:100E10005C43664B1C19A37F002B03D101F03EFEFF
:100E20006348C0E0002D06D1002F00D1B5E0019845
:100E30000C99B847B1E05F4EFA2273681201009333
:100E40000023690CE80380185941FA220023A761A6
:100E5000520102F005FE059BA060E160012B09D163
:100E6000FA239B005D43F42358437A3B281A206100
:100E7000636106E001225242D31780185941A060F5
:100E8000E1602823019901204B430021474AD318F0
:100E90009C68DD6824184D41201C291C186059608D
:100EA0000120187768460C99007D1962D877424B6B
:100EB000029403951B780592002B6ED13F4C23685A
:100EC000013302D02368013323603D4D2B78002B82
:100ED0001CD1009B3B4A1B021B0A13600223B36117
:100EE000039B0299002B02D1374B994200D9364916
:100EF000009B002059180902090A02F04FF902224A
:100F0000F3691343F36101232B7040E02368012B45
:100F10003DD10027019A27335343059AD3181F77F1
:100F20000222F3699343F361264B1868009B181A59
:100F30000002264B000AC3185A1E93415B42184018
:100F4000FFF708FEFFF750FE002F06D12823019A75
:100F50005343059AD31801221A770098FFF76AFEC7
:100F6000184D73682A6800939B1A1B021B0A002005
:100F7000029302F0FBF82B680137C01A104B0002F5
:100F80001B78000A002B02D0029B8342C8D823683A
:100F9000002B02D02368013B2360049801F07EFD02
:100FA000002000E00A4807B0F0BDC046D001002094
:100FB000031000F000000840CA0100207002002069
:100FC000C8010020740200209BFFFF00010000FF09
:100FD000021000F0F7B51E4C01F05CFDE2692369D8
:100FE000071C1340191C03229143A1619B072BD5B9
:100FF0000122184B65681A7001930222E369164EAC
:101000009343E3613368E81A0002000AFFF7A2FD88
:10101000FFF7EAFD281CFFF70DFE65683368002026
:10102000EB1A1B021B0A009302F0A0F83368C01AE7
:101030000A4B00021B78000A002B02D0009B83425F
:10104000DBD80023019A1370381C01F027FDF7BD8F
:1010500000000840CA01002074020020C8010020DE
:1010600010B586B01C1C01AB19800421598069465B
:101070000A70012202911A811A82191C0494FFF746
:10108000C9FC002801D0FF23237006B010BD10B5A5
:1010900088B003AC21800121618002A94B7002233A
:1010A000238101AB069300230A700491211C238243
:1010B000FFF7B0FC08B010BD70B58AB005AC218058
:1010C0000121618002A90A7000229A4205DA0132E8
:1010D0000E9E551E755D8D54F7E70133238101ABDC
:1010E000E36000236160211C2382FFF793FC0AB0B8
:1010F00070BD10B586B001AC2180042161806946C5
:101100000A7001222281089A0291211C04922382F2
:10111000FFF780FC06B010BD10B50C1C131C017944
:10112000221C0068FFF7B3FF00B210BD13B56B4679
:10113000DC1D0A1C231C01790068FFF791FF207851
:1011400016BD37B50D1C141C017900932A1C231CF5
:101150000068FFF7B1FF00B23EBD37B50D1C141C8F
:10116000017900932A1C231C0068FFF7C2FF00B21C
:101170003EBD08B50A20FFF7C7FD08BD08B5012030
:10118000FFF7C2FD08BD000008B5064B19711860D5
:101190000021181CFFF7CAFFC0B24738434258412C
:1011A00008BDC0467802002010B5054B141C19710B
:1011B00018600321181CFFF7B9FF2060002010BD44
:1011C00078020020F7B51D1C0023224C2B60161C52
:1011D00001AA21712060FFF7E7FF019B002B14D0CB
:1011E0002C21201CFFF7A2FF2D21071C201CFFF73C
:1011F0009DFF00023843323080B2642102F090FA41
:10120000019B3080002B1DD109E0201C00F0D2F999
:10121000201C2121FFF78AFFC307F9D5E0E726212B
:10122000201CFFF783FF2721061C201CFFF77EFFF1
:1012300028230002304380B2FF33984202D9273B73
:10124000FF3B2B60201C2121FF22FFF765FF0020C0
:10125000FEBDC0467802002070B586B0374C161C23
:101260002060201C217100F01FFA0F21051CBB22F9
:10127000201CFFF751FF102145190B22201CFFF7FE
:101280004BFFADB22D1869460022201C00F058FA21
:1012900000216A46201C00F05FFB01218722201CF0
:1012A00000F092F9ADB22D1804211D22201CFFF789
:1012B00033FFADB22D180C212422201C00F084F93C
:1012C000ADB22D1807210022201C00F07DF9ADB22F
:1012D0002D1808210022201C00F076F9ADB22D183F
:1012E00009210022201C00F06FF9ADB22D181F213A
:1012F0002022201C00F068F9ADB22D181221201C0C
:10130000202200F061F9ADB22D18ADB2002E11D13E
:1013100009210122201CFFF7FFFE0821061C4022A4
:10132000201CFFF7F9FE30182D18201C00F047F99B
:10133000ADB22D18ADB228B206B070BD7802002053
:101340002239223AC9B2D2B2002B05D1435C19012D
:10135000835C1B09CB1805E0435C825C1B029B1875
:101360001B051B0D084A93420AD0002B08D0802091
:10137000DAB21B0540001B0F10430333984001E015
:10138000012040427047C046FF0F0000036800295B
:1013900001DD8B4001E04942CB4003607047000013
:1013A000437B007B1B02C01880B203B2DA1C04D05E
:1013B000DA1C03DB002B0ADB00E0012004235B4284
:1013C000181A80B203B2012B02DD024800E00020AF
:1013D00000B27047FFFF000038B5C824051C281C68
:1013E0003021FFF7A3FE40B2012801D100200AE01E
:1013F000002801DA80B206E0013CE4B2FFF7BEFE4D
:10140000002CECD1F2E700B238BDF8B50F1C20215A
:10141000061CFFF78BFE041E38DBC825301CFFF7C7
:10142000DBFFC0B200281AD1002F0FD0301C2021C2
:10143000FFF77CFE22B243B298B2934206D0002B53
:1014400024DB013DEDB2041C002DE7D1301C182136
:101450003A1CFFF761FEC0B2C825002813D040B285
:1014600080B213E0301C2021FFF760FE22B243B2AD
:1014700098B2934209D1002B08DB013DEDB2FFF792
:101480007DFE002D01D0002FECD1002000B2F8BD70
:10149000F8B5041E19D000240368A34215D04B1CD4
:1014A00005D0012911D180260D1C360601E0012648
:1014B000FF25071C00243B68334206D1013469B282
:1014C000381CE4B2FFF762FFF5E760B2F8BD000038
:1014D00010B5041C0121FFF7DBFF23680B49DA0B71
:1014E000D2038A4205D1802301381B062360C0B293
:1014F00005E0802212029B181B0C1B042360404253
:1015000041B2201CFFF742FF10BDC0460080FFFF24
:1015100073B5002826D003685A1C25D04368013BC8
:1015200003331FD8041C061DFFF7D2FF301CFFF742
:10153000CFFF0121201CFFF7ABFF0121051C494211
:10154000301CFFF7A5FFA188061C206802F0E8F810
:1015500014237119591A019049B201A8FFF716FF17
:10156000019B01E001235B42181C76BDF7B5012603
:10157000041C071D7642FFF7ABFF381CFFF7A8FFDE
:10158000311C201CFFF784FF311C051C381CFFF7A1
:101590007FFF6268236829185343143901A849B2B0
:1015A0000193FFF7F3FE0198FEBD08B50021FFF798
:1015B0002CFF08BD08B50721FFF727FF08BD08B5B8
:1015C0000F21FFF722FF08BDF7B5041C0E1C171CE6
:1015D000FFF702FF002824D12021201CFFF7A6FDE1
:1015E0001F22164001AB051C603E201C17211D3A2E
:1015F0001F705E70FFF7A5FD002812D1201C20216E
:10160000FFF794FD061C36B2AE4209D1201C202102
:10161000FFF78CFD061EAE42F5D1FFF7AFFDF2E7F6
:10162000002000B2FEBD70B5041C201C3021FFF765
:101630007DFD40B2012802D0FFF7A0FDF5E7C826E6
:10164000C825201C2021FFF771FD40B2002805D1DC
:10165000201C0B21FFF7D9FEC82511E0013D182100
:101660000022201CEDB2FFF757FDFFF787FD002D8C
:10167000E7D1EDE7013DEDB2FFF780FD002D06D08B
:10168000201C2021FFF752FD40B20028F2D0201C80
:101690002021FFF74BFD40B2012803D0013EF6B2F6
:1016A000002ECDD1002070BD38B5041CFFF761FDC0
:1016B000FFF75FFDFFF75DFD201C08210022FFF70B
:1016C0002BFD09210022051C201CFFF725FD2D18EC
:1016D000201CFFF7A8FF08212D180022201CFFF76F
:1016E0001BFD04212D180022201CFFF715FD0521EC
:1016F0002D180022201CFFF70FFD06212D180022B7
:10170000201CFFF709FD03212D180022201CFFF7E4
:1017100003FD21212D18FF22201CFFF7FDFC1821BD
:1017200001222D18201CFFF7F7FC2D18FFF721FDD3
:10173000201C07211722FFF7EFFC281800B238BD44
:1017400070B586B0041C0D1C002825D0002923D0BC
:10175000012A0DD102AE22210B32331CFFF7FDFC12
:10176000002817D1335C002B18D101300C28F9D197
:10177000201CFFF71AFF00280CD1201C2021FFF7A6
:10178000D5FCC0B2002818D0FFF7F8FCF0E76C4B8E
:10179000184229D06B4802E06B4800E06B48E82211
:1017A000802312045B03AA60C0222B606B602B6154
:1017B0000023D203EA606B61BEE0201C18211222D4
:1017C000FFF7AAFC061C201CFFF706FE002EE1D145
:1017D000201C2021FFF7AAFCC0B28028D7D1201CF2
:1017E000FFF7E3FE5A48DAE7012802D0FFF7C6FC0C
:1017F000EEE7201C22210C2202ABFFF7AEFC0028F2
:10180000C8D1201CFFF7D1FE0028C3D1201C202105
:10181000FFF78CFCC0B2002802D0FFF7AFFCF0E766
:10182000201C18211122FFF777FC061C201CFFF753
:10183000D3FD002EAED1201C2621022205ABFFF7DE
:101840008CFC061EA6D102A8FFF7AAFD414C400160
:10185000201883692B21009302A8331C2C22FFF748
:101860006FFD01906846FFF753FE431C61D028616D
:1018700002A8FFF795FD4001201803692821009375
:1018800002A800232922FFF75BFD01906846FFF7BD
:101890003FFE431C01D180204003286002A8FFF7CF
:1018A0007FFD4001201843682221009302A80123F4
:1018B0002522FFF745FD01906846FFF729FE431CEE
:1018C00001D180204003686022212522012302A843
:1018D000FFF736FD00230090232102A82222FFF704
:1018E0002FFD01906846FFF713FE431C01D1E8204D
:1018F0000004A86002A8FFF753FD400120181C3027
:10190000686129212A22012302A8FFF719FD00237B
:101910000090232102A82222FFF712FD01906846C1
:10192000FFF7F6FD431C01D1C020C003E860002092
:1019300002E0802040039AE700B206B070BDC046C6
:10194000F0FF0000FEFF0000FCFF0000FFFF0000B2
:10195000FDFF000014000020F0B585B05469002997
:1019600003D1002C02D1234840E00C1C0021151C9F
:10197000061CFFF7DBFB3238C0B21528F3D8012371
:101980008340181C1C4B1842EDD02A68002A01D154
:10199000802252036F68002F01D180277F03637874
:1019A00021781B02CB1802A802930392FFF7DEFDF9
:1019B000FF2301AD1B0228701840000A6870E3780D
:1019C000A2781B02D31802A802930397FFF7CEFD5B
:1019D000FF231B02A8701840000AE8701321301C76
:1019E00004222B1CFFF7ADFB40B280B200B205B061
:1019F000F0BDC046FFFF00000100380070B588B0A0
:101A0000151C03AA11800421518001A90B70022426
:101A10000123049102AE13811482111C0696FEF775
:101A2000F9FF002802D000232B6008E0032273781E
:101A3000201C93431A1C33781B02D3182B6008B068
:101A400070BD0000F8B51C1CE523071C0E1C151CFE
:101A5000FFF7D4FF022802D00120404216E02A6896
:101A60000B4B381C53430B4A5B0B9B182B60311CF0
:101A7000221CE023FFF7C2FF0228EDD100202268DC
:101A8000054B5343054A5B139B182360F8BDC046C2
:101A9000093D000090E8FFFFCD550000FE48FFFF24
:101AA00030B589B003AB141C0422198069465A80F2
:101AB000F8320A70333A4A7002221A8106320491CF
:101AC0001A82191C01AD0695FEF7A4FF0023984267
:101AD00005D10133002C02D02B7823700123181C70
:101AE00009B030BD10B5436C002B0CD0036B426BBA
:101AF000041C5A43006C002103F05FF90023E364E7
:101B000023655434237010BDF0B587B08B00049367
:101B10000023041CC56B039102930022216B237DDB
:101B20008A422FD20498616C029E0958DBB2885C0D
:101B30002D4989190F5C002B03D0012B20D1FF43C5
:101B4000FFB2062151438B1D0593059B994217D087
:101B500001239C466646C810063328180B403742BE
:101B600004D09E40331C0678334305E066469E4011
:101B7000331C06789E43331C03707F080131E4E771
:101B80000132CBE7012B15D106214A430131114027
:101B900008D08B40D01028180778013B3B40083212
:101BA0000370521AA368D0109A1A2818D208FF217D
:101BB00003F003F9E368DB08ED18029B643302933A
:101BC000C823029A9B009A42A7D10623226B201DAC
:101BD0005343039A656AD20000920822E16B019296
:101BE0000022A84707B0F0BD845C000073B5031C59
:101BF00054331B78041C012B36D0002B03D000205B
:101C0000022B3AD138E0457D002D35D1636B9D42E2
:101C100005D2291C201CFFF777FF0135F6E7226962
:101C2000DB00934220D2217D002906D0012923D157
:101C3000A368E06BDA08FF2102E0A368E06BDA0832
:101C400003F0BBF8636BDD0023699D420CD20123D6
:101C5000201D01930095E16B0022A368666AB047DE
:101C600000280AD10135EFE7637D002B04D1201C49
:101C7000216DFFF749FF00E0004876BD04001280A7
:101C800038B50025041C636B626C591E8D4208D266
:101C9000AB00D118D0584968226B013503F084F8A5
:101CA000F1E708495B189B00D0580021226B03F034
:101CB00084F80022636BE264013B23655434227094
:101CC00038BDC046FFFFFF3FF0B585B0041C0D1EB8
:101CD0000A2D06D00D2902D0082928D118E00023AA
:101CE000A9E00022036DC264426B01330365934295
:101CF00000D2BAE0031C38331B78002B05D0FFF765
:101D0000BFFF636B013B2365AFE0FFF7EBFEACE089
:101D1000037D012B18D9031C49331A784A34FF2A52
:101D200001D1002200E0FF221A7022709DE01B29E1
:101D30000AD14F4E0021301C042203F03EF8032349
:101D400054343570237090E0494B1A7802931B2A63
:101D500053D101331A1C0133591E0E78002EF9D1CC
:101D60001570029803F088F9071C424AB300D31893
:101D7000191C3F483A1C039303F085F90190031E98
:101D800033D1251C033354352B70039803F074F9B9
:101D9000874252D1B01E032803D801F0B7FC050AD0
:101DA0001219019B236517E0236D002B15D0013B11
:101DB00005E0626B236D013A93420ED20133236535
:101DC0000BE0226BE36C013A934206D2013303E04D
:101DD000E36C002B01D0013BE36402980021042254
:101DE00002F0EBFF03232B703FE00136062EBCD13F
:101DF0001F480021042202F0E0FF68221E4B1B68EE
:101E00005B195B78934300D12025E36C226B9342EE
:101E100004D30023E364236D01332365236D626BD8
:101E2000934213D2236D626C9B009B58E26C203D61
:101E30009D54E36C0133E36417E0032F15D10C4884
:101E40000199042202F0B9FF2F700EE0231C3833F1
:101E50001B78201C002B05D0FFF712FF636B013BA2
:101E60002365DFE7FFF73EFEDCE705B0F0BDC046C7
:101E7000800200206C5C000070000020F7B5304C40
:101E8000231C55331B78002B01D02E4857E0261D0C
:101E90000191051C311C0068FEF782FA031E4ED129
:101EA000627D002A11D1231C301C3C33A16808320A
:101EB000E769B847002842D1301CE16BA2680823CB
:101EC000A66AB047002801D039E0E3631C4B1A69C9
:101ED0007F2A33D99A687D2A30D910225A63053275
:101EE0001A63194A1A64194A5A642A681A601A1C31
:101EF0002979383211706A7939331A700023152222
:101F00005A43206C99008218606C01330A50102BE0
:101F1000F5D1221CEF3348321370221C4932137062
:101F2000221C4A321370201CFFF7DCFD231C012207
:101F300055331A70019B00201C6000E00448FEBD70
:101F40008402002005001280F802002048040020CE
:101F50000200128070B5031C55331B78002B3CD057
:101F6000051C437D5435002B01D1013300E00223D1
:101F70002B70031C38331A78C36C002A09D0002B4D
:101F80000CD1436B026D013B9A4207D100232B70A9
:101F900004E0002B02D1036D002BF7D00E1C041CB3
:101FA0000C2904D1FFF79EFD00232B7011E0031CC8
:101FB00039331B78002B04D00A2902D10D21FFF7F9
:101FC00083FE201C311CFFF77FFE2B780020032BA3
:101FD00004D0201CFFF70AFE00E0014870BDC04697
:101FE00006001280F0B58DB003220BA8614902F003
:101FF000DBFE0022604C236C02925B0705D45F4835
:10200000012100F023FB012302935D4800F062FBF5
:102010004023E26A03211A4007905948019200F0D8
:10202000B1FC584800F04EFA80210890490055480C
:1020300000F086FAA36D002201240392234204D10A
:102040005048211C00F002FB039400F023FD012600
:102050004D4C09902568354012D0236880210493A7
:10206000A3684A4A0593E368E56906930023236061
:10207000E3610733A3617A334901FF33D15003E0B1
:102080002E1C06950595049500230BA8837001F07E
:10209000B3F880223E4B52011A603D4A13685B0040
:1020A00013600CD061686268374B9142FBD03849AD
:1020B0005A6809680139FDD85B689342EDD0344B0A
:1020C0001A6852081A6009221B68013A002A17D0C0
:1020D0005B0815D02E480168194301606768616884
:1020E0008F42FCD028494F68294908680138FDD83B
:1020F00025484068B842E8D0086898430860E4E79B
:10210000099800F0CBFC002E11D008991D4800F072
:1021100017FA012001F066F8059B0020A360069BDA
:10212000E360049B2360E56101F05CF802E0301C91
:1021300001F04EF8039B002B03D01248002100F061
:1021400085FA079B032B03D00D48191C00F01AFCDD
:10215000019B002B04D10120191C1A1C00F0D8FB94
:10216000029B002B03D00548002100F06FFA0DB050
:10217000F0BDC046A45F000000800C4000230200B8
:1021800002001A00600610000000084000E100E0B4
:10219000540000200849031C002B0CD0013B88226E
:1021A0001202003253430A68D80AD20A5043800907
:1021B00001D00138FDD870475400002030B5041C10
:1021C000002A01D11C4B01E010221C4B656B1D4005
:1021D00006292CD8081C01F099FA0408111B2A2A98
:1021E000250017494B6848680BE0154B59685B6838
:1021F0004900490E5B0209025B0E11E010498B6831
:1022000088687F210840FE21C9010B4003430FE08D
:102210000B498B6889685B005B0E49021B02490E03
:102220000B4305E07F21064BDB680B4000E00023F9
:1022300093402B43636330BD8080FFFFFFFF8080AE
:10224000B081E00F38B51B4B051C0C1C984203D025
:1022500019481A4900F0A4F802236B60A178002203
:10226000281CFFF7ABFF62782378217912051B0742
:10227000134309020B431A1CE3781B011343A27991
:10228000002A02D0802252041343E279002A01D0AE
:10229000042213436279002A01D002221343227AD6
:1022A000002A01D001221343A27812041343EB60E9
:1022B00038BDC04600200040A75F00005A03000060
:1022C00010B50E4B041C081C9C4205D80C4B9C42BC
:1022D00003D8FA24E40100E01C1C002802D10948BC
:1022E00000F0A8FA611E0818211C01F019FA031C5D
:1022F0005A1E9341C01AC0B210BDC046405DC60010
:10230000FF7C00004081040070B5224B061C0D1CB0
:102310000C79984204D0BC211F48490000F040F8D5
:102320001E48002C04D1211CFFF7CAFF041C15E035
:102330000021FFF7C5FF844204D2C321164849009B
:1023400000F02EF8FA200021C001FFF7B9FF844207
:1023500004D988211048FF3100F022F80A23FE2119
:1023600073602A786B7812061B011A43AB78C90395
:102370001A43EB7824021B040B401A43FE23DB01B3
:102380001C406B791443002B01D008231C4334609C
:1023900070BDC04600200040A75F0000405DC60041
:1023A000FEE7000070B50A490A4D401800210E1CD6
:1023B00085424E410725084B084ADC6BDA635A68B0
:1023C0005A68AA4332435A608C4200D0D96370BD28
:1023D000FFDB0BFFFF23F40000000C40711B00002B
:1023E00008B5FDF757FFFFF7DDFF08BD10B5074B38
:1023F000421E041C9A4203D905480649FFF7D0FF44
:10240000201C01F00FFB1F23181A10BDFF7F0000D6
:10241000B95F000024050000034B5A6DD20702D4B7
:102420001A6D0242FCD1704700800C4008B5E022D2
:1024300080211A4BD2005B69890013408B4218D06F
:1024400006D8002B0CD08022520093421FD017E0F8
:10245000C02189008B4205D0934211D110481BE066
:10246000104819E0104BDB6C1B0E122B11D80F48D3
:1024700012E00D4BDB6C1B0E122B0CD80C480BE042
:102480008F210C484900FFF78BFF002004E00A4829
:1024900002E00A4800E00A4808BDC04600800C403F
:1024A000406F4001809FD500B081E00F40420F0097
:1024B000C0CF6A001C600000C0D8A700804F120087
:1024C00040B5640008B5031C0006000F043803285B
:1024D00024D801F01BF902050816134B986807E091
:1024E000114B586804E0114A934207D10E4B986E85
:1024F0000F2318400E3B8340181C14E00C480D4974
:102500000EE00D4A934205D1074B186F0323184084
:10251000023BF0E797210648C90001E0044807495B
:10252000FFF73EFF012008BD00800C406006100050
:102530001C6000009E04000070071600BF0400002D
:1025400010B5031C0006000F04380C1C032862D8C9
:1025500001F0DCF802142C47314B4A1E9A4203D991
:1025600030483149FFF71CFF201CFFF73FFF0F21C8
:102570002E4A93688B431843906050E0284B4A1EC4
:102580009A4203D927482A49FFF70AFFFFF728FF95
:10259000201CFFF72BFF0F21244A53688B4318435D
:1025A0005060FDF7C9FEFFF7FDFE38E0214A934277
:1025B00014D180231B02994203D91A481E49FFF700
:1025C000EFFE0420FFF728FF201CFFF70FFF0F216D
:1025D000164A936E8B431843906620E011481749C2
:1025E0001BE0174A934213D1082904D9AD210D48A5
:1025F000C900FFF7D5FE4020FFF70EFF201CFFF7B4
:10260000F5FE0321094A136F8B431843106706E058
:1026100004480C4901E003480B49FFF7C1FE10BD17
:10262000FF0100001C600000FF04000000800C405F
:102630000705000060061000230500005E0500008D
:1026400070071600850500008B05000070B5051C9D
:102650000005000F01380E1C092812D801F056F8A9
:102660000519161111080B11110E0020114C12E062
:102670000120114C0FE01020104C0CE00020104CF9
:1026800009E010481049FFF78BFE11E000200F4CC5
:1026900001E000200E4CED03ED0E002801D0FFF705
:1026A000BBFE0122AA40AE4023689343334323601C
:1026B00070BDC04608800C4058800C4060800C40C3
:1026C00078800C401C600000F205000040800C4047
:1026D00044800C4008B50F231840013805283FD826
:1026E00001F014F803192B3E3E44214B8022D86A96
:1026F000F0239B01034052010320934237D08022F4
:1027000001389201934232D01A4A9B1858424341F1
:102710000520C01A2BE00321154A936A0B40181EAE
:10272000022824D006208B4221D0081C012B1ED069
:10273000936A0238DB0311D419E00C230C4A0220FF
:10274000916A0B40082B12D004300C2B0FD00338A9
:10275000042B0CD0936A0238DB0208D5083006E05F
:1027600005480649FFF71CFE002000E0072008BDD1
:1027700000800C4000F8FFFF1C600000A70900006B
:1027800070B5274E051EB54207D0264B984204D09F
:10279000F32125484900FFF703FE281CFFF79AFFA5
:1027A000B54207D01F4B9D4209D1204B9C6A24079C
:1027B000A40F0AE01D4B9C6A03231C4005E0842102
:1027C000041C89001848FFF7EBFD032C21D8201CBE
:1027D00000F09CFF0C020508FDF7BFFD1EE0FDF7B1
:1027E000C3FD1BE0FDF7A8FD400817E0B54203D08C
:1027F0000C4B00209D4211D10C4B10229B6AB5421C
:1028000000D004320020D340834207D0FDF7A8FD5A
:1028100004E005480649FFF7C3FD002070BDC0462F
:1028200002001A0003001C001C60000000800C4025
:102830003B02000008B5F8239B031840E0231B036C
:10284000984250D010D880239B0298422AD002D8B8
:10285000002841D04AE08023DB0298421DD0C023EB
:102860001B03984231D041E0B0235B03984223D050
:1028700009D880235B03984238D11F48FFF780FFB7
:102880001E4B9A6E13E0D0235B0398420DD0E023D9
:102890005B0398422AD11A480BE0FDF7FFFC174B67
:1028A0009A6804E0FDF748FD25E0134801E00F2396
:1028B00008E0FFF765FF1EE01148FFF761FF0F4BCF
:1028C0001A6F03231340D84015E00E48FFF702FFAC
:1028D000072808D0082802D1FDF7E0FC0BE04821CA
:1028E0000948FF3104E0FFF7A1FD04E0064807496D
:1028F000FFF756FD002008BD02001A0000800C40C2
:1029000003001C0006000C001C600000BC06000058
:1029100038B5042812D800F0F9FE0B0703161A0088
:1029200008200423032415E080204023072411E01D
:102930008020802380005B0009240BE00D480E49B5
:10294000FFF72EFD15E0012302201C1C02E02020D1
:1029500010230524094D00290AD02B62002A08D033
:102960000123A3401C1C064B1B682342FBD000E044
:10297000286238BD1C6000005E0E000000800C4024
:102980002C800C4010B50F231840041E012C04D0DD
:10299000002867D0032827D964E0881E07280ED8AE
:1029A00000F0B4FE100413070D0D0D0A01200324DE
:1029B0000DE0032001240AE02D482E4954E02C4864
:1029C0002D4951E00020042401E00220041C0121D3
:1029D0000A1CFFF79DFFFFF703FD284B5C62FDF724
:1029E000ABFCFFF7DFFC41E0481E082821D800F0CF
:1029F0008DFE23081020201820200500012300222E
:102A00001CE0012100200A1CFFF782FF00230222A4
:102A100014E00120021C011CFFF77AFF00230122B1
:102A20000CE00423164A11680B43136000230322B1
:102A300004E00F48134917E000231A1C0F49022C29
:102A400007D18C6A10481B04204002431A438A6253
:102A50000CE092001B05886A13430C4A02401343A2
:102A60008B6203E002480A49FFF79AFC10BDC0469A
:102A70001C600000490A00004E0A000000800C4063
:102A800040800C40E70A0000FCFFFEFFF3FFEFFF71
:102A9000920B0000EFF3108072B67047002800D14F
:102AA00062B6704738B5041C0D1C00280ED00128F2
:102AB0000ED002280ED003280ED004280ED0421FBC
:102AC00051424A413F235242134008E00C4B06E07A
:102AD0000C4B04E00C4B02E00C4B00E00C4B2B4188
:102AE000DB0703D40B480C49FFF75AFC0123AB402A
:102AF0001D1C24235C43094BE418256138BDC046E6
:102B00007FF70000F8790000FFFF0000FF010000E0
:102B1000F0FF0000D75B00005A0300000060004097
:102B200038B5041C0D1C00280ED001280ED0022838
:102B30000ED003280ED004280ED0421F51424A4125
:102B40003F235242134008E00C4B06E00C4B04E0DC
:102B50000C4B02E00C4B00E00C4B2B41DB0703D489
:102B60000B480C49FFF71CFC0123AB401D1C242320
:102B70005C43094BE418656038BDC0467FF7000030
:102B8000F8790000FFFF0000FF010000F0FF0000E7
:102B9000D75B00002D03000010600040F8B5041C56
:102BA0000D1C161C1F1C00280ED001280ED0022858
:102BB0000ED003280ED004280ED0421F51424A41A5
:102BC0003F235242134008E0214B06E0214B04E032
:102BD000214B02E0214B00E0214B2B41DB0704D4C9
:102BE000892120484900FFF7DBFB002E08D0201C7C
:102BF000291C002F02D0FFF755FF01E0FFF790FFDF
:102C000024236343184A9B18072D0AD80F20AA00D3
:102C1000904059688143301C9040021C0A435A601E
:102C20000AE00F2011499A68691889008840824398
:102C3000301C884002439A60002E08D1201C291CB9
:102C4000002F02D0FFF72EFF01E0FFF769FFF8BD6C
:102C50007FF70000F8790000FFFF0000FF0100008F
:102C6000F0FF00007F60000000600040F8FFFF3FC1
:102C7000F8B5041C0E1C171C1D1C002A04D1234887
:102C8000EC21FFF78DFB40E00268214B1A40026007
:102C9000026813402A0213430360002903D11D4830
:102CA000FFF7C8FD061C23689B0704D5022D09D831
:102CB000AA00194B03E0022D04D8184BAA00D358E0
:102CC0009E4204D828211148FF31FFF769FB144BBD
:102CD000B800595D301A794300F022FD451E05D534
:102CE00036210A48FF31FFF75BFB02E00D4B9D42A6
:102CF00004D99B2105484900FFF752FB23689B0735
:102D000002D5002D00D101352561F8BD006100001C
:102D1000FFFCFFFF40810400E4600000F060000061
:102D2000FC600000FF01000070B5124B041C0D1C7C
:102D3000984204D064211048FF31FFF731FB002393
:102D40000222012663630D4B201C236323689343F7
:102D50001A1C6B787340B340134323602B7BAA6823
:102D60006968FFF785FF23682A78B343134323601C
:102D700070BDC04600A0004000610000CFFF010010
:102D8000F8B58B4CA04206D0B4218A48FF31FFF73A
:102D900007FBFC2009E1884B9E6859881A791F7847
:102DA000C020A56AC00005420BD059801A71AA053F
:102DB00001D5FD2202E06A0501D5FE225A700922E2
:102DC000E6E0082F00D9DEE0381C00F09FFC051B70
:102DD000425C744E96AAD2001A715980708832886B
:102DE000C10604D50621120A0A40EA3104E0FE2198
:102DF0000A40810701D501210A430121197062624D
:102E00006160C6E08020054200D079E040273D4265
:102E100001D101207EE0276365487788844602253A
:102E2000F80606D5598061461A7132781D704A62DB
:102E3000AFE02F4273D0598007211A71D200197068
:102E4000B6183289012A00D0A3E0521861464A60C0
:102E50009FE08020054253D1402702203D4259D0B7
:102E60002763758805425AD00BE0D00030180589D9
:102E70008D423AD8042071880132D2B2084029D05C
:102E8000002103278CE71A71598070883288C106A7
:102E900005D50621120A0A40EA310A4301E0FE2163
:102EA0000A400421084201D0012002431970012187
:102EB000616062626DE08020054221D140270420DC
:102EC0003D4227D027637588054228D01A71598062
:102ED00007225DE00125294002D058801A7138E0B0
:102EE000012A00D85CE75980F8E71A714268481C4B
:102EF000525C5880626206224AE08020054205D07A
:102F00001A71FF22598020635A7022E04020054246
:102F100004D13A38187059801A713AE020630527B5
:102F20003EE70720598018701A71A90631D5D200E2
:102F3000B61831895A88E5698A4203D27068561CEE
:102F40005E8085545A888A4208D3012901D108221B
:102F5000626008221A70063A62601AE0042060601B
:102F6000012916D001398A4213D10821104A516033
:102F70000FE01A7180220820520018705980154203
:102F800007D022631BE71A71FB2259805A70F23A6C
:102F90001A701A780120092A07D1002201216263E0
:102FA0005956814200D15A70587840B2F8BDC04697
:102FB00000A0004000610000DC02002070B5214C40
:102FC000061C0D1CA04208D0CB211F488900FFF72A
:102FD000E7F9002D03D0FC2031E0002905D11A4883
:102FE0001A49FFF7DDF9A642F5D1A368DB0702D540
:102FF0002022144B5A606B889A0702D52A89002A2E
:10300000E9D05B0702D52B8A002BE4D000220121F6
:103010000F4B1A711A7059705A809D60C0236360FB
:10302000A36A9B0601D5074BDB69FC22094BD20042
:103030002363636B034813436363FFF7A1FE40B24E
:1030400070BDC04600A00040006100002D030000DC
:10305000DC020020CFFF0100036CDB0702D4436CCD
:103060000B42FCD17047000070B5051C0C1C161EED
:1030700004D1862114484900FFF792F9002C0DD1A4
:10308000124B9D4204D11248FFF7D4FB041C05E00B
:103090009C210D484900FFF783F913E06001311CC2
:1030A00000F03EFB0B4E2038C400B44204D9462148
:1030B0000548FF31FFF774F93440281C0421FFF75D
:1030C000CBFFEC6070BDC0461261000000400840BC
:1030D00070071600F87F000070B5144B041C0D1C1F
:1030E000984204D0E82112484900FFF759F9201C02
:1030F0000221FFF7B1FF0A236360666C002EFCD14A
:1031000001231C21236423682A7B8B4313436A7B9E
:10311000201C1343AA7B696813432360AA68FFF746
:10312000A3FF2B786360266470BDC0460040084052
:103130001261000070B5041C0D1C161C032803D975
:1031400008487721FFF72CF90722802132404905F2
:103150000A43FC2189032940034B04341143A40092
:10316000E15070BD7861000000C00C4010B5041E35
:10317000012C03D907487921FFF712F9002C04D05C
:10318000012C05D1044BD86803E0034B986800E09C
:10319000002010BDDB6100000000084038B5041CB1
:1031A0000D1C012801D80B0E03D00648AA21FFF7F9
:1031B000F7F8002C03D0012C03D1034B00E0034BA4
:1031C0001D6038BDDB6100000C00084008000840AD
:1031D0000121034A13688B43184310607047C046AF
:1031E00000000840034B002802D001221A6200E0D0
:1031F000186270470000084042780378002A01D026
:10320000022213438278002A01D004221343014A88
:10321000136070470000084008B50020FFF7D8FF92
:103220000120FFF7D5FF08BD70B5051C0C1C161E4C
:1032300004D1E6210E48FF31FFF7B2F8002C03D18C
:103240000C48FFF7F7FA041C601E710000F068FAE2
:10325000094C0602264204D0F8210548FF31FFF749
:103260009FF86B6905481C40064034436C6170BD93
:103270003E620000408104003F00E0FFC0FF1F00ED
:1032800038B50E4D041EAC4203D00D480D49FFF772
:1032900087F80D4B0D4AE3600023236062600C4AFF
:1032A000A3606361E364A2646365AC4200D12365FB
:1032B000A365AC4201D10023E36538BD00C40040E2
:1032C0003E6200005D030000AA0E00000510000031
:1032D000F91F000038B51B4B041C0D1C984203D08D
:1032E00019481A49FFF75CF8201CFFF7C9FF0122B3
:1032F0002B8A21681343AA7B0B43501E8241920202
:10330000134323602B7D2268591E8B415B071343B7
:103310002360AB7C002B03D01022EB7C1343A3650E
:1033200080222B7B520113436360201C6968AA68CA
:10333000FFF77AFF6B7B002B01D01023E3602B7823
:10334000E36038BD00C400403E620000830200001C
:1033500003695B06FCD54163704703695B06FCD5D6
:10336000C163704710B5074B041C0341DB0703D44E
:1033700005480649FFF714F80120A040044BD86522
:1033800010BDC046FFFF0000D75B00002D0300000A
:103390000060004010B5074B041C0341DB0703D459
:1033A00005480649FEF7FCFF0120A040044B986544
:1033B00010BDC046FFFF0000D75B00005A030000AD
:1033C00000600040024A1368013313607047C04632
:1033D0009C040020034B19681A68521A8242FBD3DE
:1033E0007047C0469C04002038B52C22104B114C6D
:1033F0001D68FF32ED05ED0F23680AD193420AD90B
:1034000096225200934211D10A20FFF7C3FF256094
:103410000CE0934201D8013307E096225200934218
:1034200004D10A20FFF79EFF0023236038BDC04669
:10343000646000408804002038B52C22104B114CE9
:103440001D68FF32AD05ED0F23680AD193420AD9FA
:1034500096225200934211D10B20FFF79BFF25606B
:103460000CE0934201D8013307E0962252009342C8
:1034700004D10B20FFF776FF0023236038BDC04640
:10348000646000408804002008B5FFF7ADFFFFF737
:10349000D3FF08BDF0B589B000241F2305AD03AFED
:1034A0000922494E281C211CFB703C707C70BC70AA
:1034B0003C717C7101F081FC44480121FFF7C6F8A2
:1034C000391C301CFEF720FF04270923291C2B710F
:1034D0006F700125301CFEF7B5FEC02110223C4B59
:1034E000490073637369201C2B437361394B5A5035
:1034F0001A60FCF793FEFCF799FE391C281CFFF7B5
:1035000041FA3548FFF796F9FA21890000F008F9E9
:10351000324B0138984213D8314A32495060C020AA
:103520000B6A00061B021B0A03430B62072394600D
:103530001360FCF71FFFFDF7D7FA041E01D101E06D
:10354000FEE7FEE7291C2848FFF780F802202B1C25
:10355000021C0821FFF722FB02202B1C021C092160
:10356000FFF71CFB3A1C231C02200A21FFF716FB65
:103570003A1C231C0B210220FFF710FBFDF7EEFB8A
:103580001A4E301CFDF79EFB0094291C184B0A2292
:103590003068FDF72FFC1748FDF78CF9221C8221BB
:1035A0001548FEF77DFA154BC02118701248FDF73B
:1035B000EBFD431E9841124BC02118702A1C0E4887
:1035C000FDF74AFE09B0F0BD0020004000A2040053
:1035D0007C1F000000E100E050000200FFFFFF0040
:1035E00010E000E000ED00E0007204009004002014
:1035F000893400005800002000A0004098040020FA
:103600008C040020F7B5FFF745FF2E4D2E4C82218C
:103610002A1C231C2D48FEF715FA2D4EC021321C02
:103620002C4B2A48FDF7CEFD002301212A4A1370B6
:103630002A4B101C5960191C01960378002B06D1E7
:103640000426274A1369B343136130BFF5E72068A6
:103650004E6A01F07DF8234A234B00F0A9FD0022B9
:10366000224B00F07DFA01F03DF8071C204801F0E4
:1036700005FC204801F002FCFA212068890000F0D6
:10368000DFF8011C1C4801F0F9FBFA21381C890005
:1036900000F0D6F8011C194801F0F0FB2968184821
:1036A00001F0ECFB019B1748198801F0E7FB311C86
:1036B000154801F0E3FBFA208000FFF78BFE0020A5
:1036C000FEBDC046A0040020A404002000A00040CD
:1036D0008E04002094040020E80200200020004016
:1036E00000ED00E0CDCCCCCCCCCCFC3F0000404089
:1036F000A3620000A5620000BD620000D662000067
:10370000F2620000076300002C63000002B47146FF
:1037100049084900095C49008E4402BC7047C04614
:10372000002243088B4274D303098B425FD3030A00
:103730008B4244D3030B8B4228D3030C8B420DD313
:10374000FF22090212BA030C8B4202D312120902A1
:1037500065D0030B8B4219D300E0090AC30B8B42DF
:1037600001D3CB03C01A5241830B8B4201D38B038D
:10377000C01A5241430B8B4201D34B03C01A524132
:10378000030B8B4201D30B03C01A5241C30A8B4275
:1037900001D3CB02C01A5241830A8B4201D38B0260
:1037A000C01A5241430A8B4201D34B02C01A524104
:1037B000030A8B4201D30B02C01A5241CDD2C30976
:1037C0008B4201D3CB01C01A524183098B4201D3F2
:1037D0008B01C01A524143098B4201D34B01C01ADD
:1037E000524103098B4201D30B01C01A5241C30855
:1037F0008B4201D3CB00C01A524183088B4201D3C4
:103800008B00C01A524143088B4201D34B00C01AAF
:103810005241411A00D20146524110467047FFE71B
:1038200001B5002000F0FCF802BDC0460029F7D029
:1038300003B5FFF775FF0EBC4243891A1847C0460F
:1038400003460B437FD4002243088B4274D3030901
:103850008B425FD3030A8B4244D3030B8B4228D3A2
:10386000030C8B420DD3FF22090212BA030C8B42C8
:1038700002D31212090265D0030B8B4219D300E068
:10388000090AC30B8B4201D3CB03C01A5241830BED
:103890008B4201D38B03C01A5241430B8B4201D39D
:1038A0004B03C01A5241030B8B4201D30B03C01AC6
:1038B0005241C30A8B4201D3CB02C01A5241830A40
:1038C0008B4201D38B02C01A5241430A8B4201D36F
:1038D0004B02C01A5241030A8B4201D30B02C01A99
:1038E0005241CDD2C3098B4201D3CB01C01A524100
:1038F00083098B4201D38B01C01A524143098B4289
:1039000001D34B01C01A524103098B4201D30B0171
:10391000C01A5241C3088B4201D3CB00C01A524196
:1039200083088B4201D38B00C01A524143088B425B
:1039300001D34B00C01A5241411A00D201465241F4
:10394000104670475DE0CA0F00D04942031000D313
:103950004042534000229C4603098B422DD3030A68
:103960008B4212D3FC22890112BA030A8B420CD378
:10397000890192118B4208D3890192118B4204D3A1
:1039800089013AD0921100E08909C3098B4201D321
:10399000CB01C01A524183098B4201D38B01C01A5B
:1039A000524143098B4201D34B01C01A52410309D2
:1039B0008B4201D30B01C01A5241C3088B4201D381
:1039C000CB00C01A524183088B4201D38B00C01A2E
:1039D0005241D9D243088B4201D34B00C01A524105
:1039E000411A00D20146634652415B10104601D392
:1039F0004042002B00D54942704763465B1000D31C
:103A0000404201B5002000F00BF802BD0029F8D0BB
:103A100003B5FFF715FF0EBC4243891A1847C0468D
:103A20007047C0461C2101231B04984201D3000C9F
:103A300010391B0A984201D3000A08391B09984221
:103A400001D30009043902A2105C40187047C04637
:103A50000403020201010101000000000000000057
:103A6000002B11D1002A0FD1002900D1002802D04B
:103A70000021C943081C07B4024802A14018029063
:103A800003BDC0469DFFFFFF03B4684601B5029821
:103A900000F04CF8019B9E4602B00CBC7047C0463B
:103AA000F0B54F46464605042D0C2C1CC0B4170437
:103AB000160C3F0C9946030C7C4375435F437343DC
:103AC0007D19260CAD199C46AF4203D980235B02B9
:103AD0009846C4444B465143434324042E0C240CC3
:103AE0002D0466442C1959188919201C0CBC9046C9
:103AF0009946F0BDF0B583B0161C1F1C00900191D3
:103B000000F062FE041C0D1C221C2B1C301C391CF6
:103B1000FFF7C6FF009A019B121A8B410899201CDF
:103B20000A604B60291C03B0F0BDC046F0B5141C00
:103B300083B01D1C0090019100F03EFF221C2B1C45
:103B4000061C0F1CFFF7ACFF009A019B121A8B4159
:103B50000899301C0A604B60391C03B0F0BDC046A8
:103B6000F0B5454657464E4694464C000A03C90FE9
:103B7000E0B488460E1C1903470FC500480A614689
:103B8000490F01436046520A1743C0005A00640DB2
:103B9000520DDB0F8446984500D1A7E0A01A0028FB
:103BA00000DC01E1002A3DD163460B4300D0D4E0A4
:103BB0006B0700D188E00F232B40042B00D183E05A
:103BC0002A1DAA42AD4180236D427F191B043B4050
:103BD0004646151C002B00D17CE0CC4B01349C42A6
:103BE00000D1FDE03A1CCA4BED081A4050076405AD
:103BF00052020543120B640D002112030B0D1B052D
:103C00006405120B1A436308C24CF60714401C43A8
:103C1000640064083443281C211C1CBC904699464F
:103C2000A246F0BDB94B9C42C2D080231B0419436D
:103C3000382800DDECE01F2800DD21E120220E1CE9
:103C40006346121A9640C340334366469640321C80
:103C5000561EB24113430A1CC240EB1A9D42B641A4
:103C60001D1CBA1A7642971B3B0200D497E07A02D9
:103C7000560A002E00D1B6E0301CFFF7D3FE031C1D
:103C8000083B1F2B00DDB7E09E40371C28262A1C6E
:103C9000361AF240161C9D403E439C4200DDB2E0C5
:103CA0001C1B621C1F2A00DDD8E01F23291C1C1BC3
:103CB000331CA540A340D1406C1EA541D6401943FA
:103CC0000D43371C002473E780231B043B4046460A
:103CD00000D082E78D4BED0878070543FA089C4237
:103CE00032D012036405120B640D85E7A31A002B72
:103CF00000DC94E0002A3CD0844A944200D157E78B
:103D0000802212041143382B00DC05E1634619437D
:103D1000481E81410022C8B24019A8429B41051C9F
:103D2000D2195B42D7183B0239D5784B01349C42FB
:103D300000D14CE10120764A6B083A4028401843F4
:103D4000D5070543570833E72B1C134348D080237E
:103D50001B031A431203120B4EE70138002878D1D7
:103D60006346EE1AB5429B417A1A5B42D71A351C5C
:103D70007AE7021C0A4300D11AE7013B002B00D06E
:103D8000F2E04019A8429B41CA195B42D718051CB2
:103D9000C9E7131C334300D118E1171C351C4646F4
:103DA0006B0700D007E795E700287AD1621C52051F
:103DB000520D012A00DCFBE06246AA1A9542B64188
:103DC0009146781A7242861A320200D493E0624613
:103DD000551BAC458041CF1B40423E1A984648E7F0
:103DE0000022002508E7281CFFF71CFE2030031CDA
:103DF000083B1F2B00DC47E7283885402E1C002598
:103E00009C4200DC4CE7424AE41A1640371CCFE6DD
:103E1000634619434B1E99410022CBB21DE7002B8C
:103E200000D0F2E0601C43055B0D012B00DCA4E038
:103E3000364B984200D121E163465C19AC429B416C
:103E4000CF195B42FA186408D50725435708041CAC
:103E5000AEE62E4B9C4200D0EAE6A9E6211C331CBC
:103E60001F39CB40191C202A00D182E03F231C1BA4
:103E7000A64035436E1EB54100270D4300248EE752
:103E8000031C0E1C203BDE40202874D040231B1A4C
:103E900099400B1C62461343591E8B410022334349
:103EA000DBE6002C50D0194CA24200D1A8E08024BF
:103EB000240440422743382800DDD9E01F2800DDD4
:103EC00039E120243E1C241AA640B0462E1CA146EF
:103ED000C640444626434C46A5406C1EA541C740FB
:103EE00035436046451BCF1BAC45894149427F1A8B
:103EF000141C9846B8E64B464D46334300D0B8E60E
:103F00000026002700240025E4E6C046FF07000045
:103F1000FFFF7FFFFFFF0F801F2B5BDC2022081CB1
:103F2000D21A9040814660469246D8404A46104395
:103F30008146524660469040021C501E82414846CF
:103F400010430A1CDA40E7E63C1C2C4358D0C0431F
:103F5000002851D16046451BAC458041CF1B4042F3
:103F60003F1A141C98467FE68F4A944200D0CAE656
:103F70001EE600267DE700238CE73B1C2B43002C2C
:103F800000D0BDE0002B00D1F5E063460B4300D12B
:103F90000EE663465B19AB428041CA1940421718CE
:103FA0003A0200D4FCE0814A1D1C17400134FFE5B1
:103FB0003A1C2A43002C51D1002A00D085E06246E9
:103FC0000A4303D00F1C65469846F1E500260027FA
:103FD00000257FE6181C0A1C2038C240202B00D187
:103FE000A7E04020C01A8140081C63461843411EC8
:103FF0008841104300228FE66B4CA24200D05AE762
:104000000F1C6546141C9846D2E5002C3AD1381C8A
:10401000284371D0DB43002B18D0634882426BD019
:10402000382B00DD9DE01F2B00DDA7E020203C1C8D
:10403000C01A8440A1462C1C8246DC4048460443FA
:1040400050468540681E8541DF40254365446545EF
:104050009B417F185B42FF18141C64E6002A19D1AB
:1040600062460A4377D00F1C654698464E4C9FE542
:104070003D436F1EBD410027EDB232E7041C00270F
:10408000002527E64848824236D0802000045B4263
:104090000743C5E762460A4349D08024ED08780704
:1040A000FA0824032843224209D0CE08264206D12A
:1040B00062464F07381CD20810439846321CD20083
:1040C000470F1743C500384C72E562460A4300D1DA
:1040D0006EE56246AE1AB5429241781A5242821A91
:1040E000100200D455E66246551BAC458041CA1B00
:1040F0004042171A98465BE50F1C6546141C57E5AD
:10410000002B34D063460B4311D08024ED08780790
:10411000FA08240328432242D1D0CB082342CED12F
:1041200062464F07381CD20810431A1CC7E71E4CC2
:104130003EE5002059E7041C3E1C203CE640341CB0
:1041400020282BD04026301A87403D436F1EBD41AA
:1041500000272543C5E680270026FF03124C0025D3
:10416000B8E53D436F1EBD410027EDB26EE70F1C61
:1041700065460D4C1CE50F1C654619E51C1C381CDA
:10418000203CE040041C202B0CD04020C31A9F4050
:104190003D436F1EBD410027254357E70027D4E765
:1041A0001D1CFCE50027F3E7FF070000FFFF7FFF72
:1041B000F0B55F4656464D464446F0B4051C061C15
:1041C000080387B099464F00030BCC0F92469B46DD
:1041D0007F0D019467D06C4B9F4236D080205B46A8
:1041E00040031843C0006B0F1843684B83469C463E
:1041F00000239846EE00674400934B4649461D0352
:10420000C90F5B0052462D0B5B0D894600D16EE055
:104210005D498B4264D080205C4940038C4600217C
:104220000543ED00500F0543D20063444846FF1894
:104230007B1C9A46009B604002900B430F2B00D9D9
:10424000ACE053489B00C3589F465B461D4300D0DB
:1042500082E00823009300239B4602330026984601
:10426000CBE7029B01934346022B59D10124002541
:104270000026019B1C40444B00212D030A0D120512
:104280002D0B1543434A1B0515401D436D00E407E4
:104290006D082543301C291C07B03CBC904699464C
:1042A000A246AB46F0BD2B434ED05B46002B00D15F
:1042B00085E15846FFF7B6FB021C2823291C9B1AF0
:1042C000161C5846D940083EB0400B1CB54003436D
:1042D0009B462E1C0023304F0093BF1A98468CE754
:1042E000514629432ED10025002202219EE7514646
:1042F000294323D0002D00D154E1281CFFF792FB65
:10430000031C28215046C91A1A1CC8405146083AB5
:10431000914095400A1C05431F480021C31A85E7B8
:10432000032B00D1C2E1012B00D06DE14446019B7B
:1043300000251C40E4B2002300269DE70025002252
:10434000012173E7032171E70423009300239B46B7
:1043500001330026984650E70C230093093B98460A
:104360004BE7802500242D030026074B84E74B46AE
:10437000AB46161C0193884675E7029BAB46161C9C
:10438000019388466FE7C046FF07000001FCFFFF6E
:104390003C630000FFFF0F800DFCFFFF330C360471
:1043A000360C9C46331C140C1204120C53439846D2
:1043B000634653439946634663430193331C414626
:1043C0006343090C4B445B18994505D98020400292
:1043D0008146019949440191190C03914146090410
:1043E000090C1B045B1804932B0C9846331C2D04FA
:1043F000290C4B43604600934346654658435E4351
:10440000009B4D431B0C9946AE194E448446B54261
:1044100003D980235B029946CC44350C2B1C0398AE
:10442000634484460593009B36041B041B0CF3185D
:104430009C446046039058460504060C280C8446AC
:104440005043351C81466046654344434846000C52
:104450008346724314195C44A24203D9802252025B
:1044600093465D44220CAD184A461204120C2404F3
:104470004046A41862464A4371434643604600964C
:10448000464670438046100C84468844E0444145CB
:1044900005D9802149028C46009961440091019818
:1044A00003998446614499429B415B429946059831
:1044B000434684461204120C1B049B1863449C461A
:1044C000AB4683429B4140460A19CC44A2428941F3
:1044D000E344CC45B6415C46000C804649427642F6
:1044E0005B426418334398448C428941AB459B41FD
:1044F00049425B4219430D1C009B4544EE1876026D
:10450000E50D2E43B346049B56021E43731E9E4187
:104510005B46D20D324366021643DB010AD5012306
:10452000334076081E435B46DB071E435B465B0851
:104530009B465746634BFB18002B5ADD720709D088
:104540000F223240042A05D0321DB242B6417642D3
:10455000B344161C5A46D20106D55A465A4B1A4045
:1045600080239346DB00FB18584A934234DD012434
:10457000029B00251C400026554B7DE680205B46B3
:104580000003034208D0054206D105432D032D0B3D
:104590004C46161C4E4B6FE65D4605432D032D0B16
:1045A0004B4B69E65046FFF73DFA031C2033272B9F
:1045B00000DCA6E65546083885400022ACE6281CFB
:1045C000FFF730FA021C2032272A00DC75E6083893
:1045D00085400026AB467DE65A46F608520716434C
:1045E0005A4601245502029A5B052D0B5B0D1440BF
:1045F00042E6384DED1B382D0ADD0124029B0025D3
:104600001C400026002337E6019B5746029391E7A2
:104610001F2D25DC304B321C9C466744BE405B4658
:10462000BB40371CEA407E1EB74113433B431E1C70
:104630005B46EB401D1C730709D00F233340042B4E
:1046400005D0331DB342B6417642AD191E1C2B0274
:1046500020D50124029B00251C40002601230BE6E7
:104660005A461E4BDB1BDA40131C202D1CD01C4A63
:1046700094465A466744BA40171C3E43721E964100
:104680001E4307230025334007D00F230025334066
:10469000042BD6D16B076D022D0B0124F6081E43A7
:1046A000029B1C400023E7E50027E6E780255B46E8
:1046B00001242D031D43019B2D0323401C1C2D0BA6
:1046C000034BD9E5FF030000FFFFFFFEFE070000DC
:1046D000FF07000002FCFFFF1E040000E2FBFFFFDB
:1046E0003E0400000B0330B5134C1A0B4B00051CA5
:1046F0005B0DC90F0020A34210DD104883420EDC81
:1047000080200F4C40030243E41A1F2C0ADD0D48A1
:10471000C31ADA40131C48424340581830BD0A4BB4
:10472000C818FBE7281CE040084CA44663449A40A4
:10473000131C0343EFE7C046FE0300001D04000006
:104740003304000013040000FFFFFF7FEDFBFFFFB9
:1047500038B5041E16D0C50F00D04442201CFFF708
:1047600061F9174B1B1A0A2821DC021C211C153287
:1047700091400A1C0B21081AC4405B052403240B3A
:104780005B0D03E000250023002400220021101C03
:1047900024030A0D1205240B14430A4A1B05144076
:1047A0001C436400ED0764082C43211C38BD0B3802
:1047B00084405B052403240B5B0D0022E6E7C04622
:1047C0001E040000FFFF0F80F0B544465F465646CA
:1047D0004D46F0B41C1C85B0002900DAA9E00F1C7E
:1047E0000021061C8846101C191C002C00DA97E0DA
:1047F000341C3D1C82468946B94273D870D0494664
:10480000504600F085F98346391C301C00F080F9D1
:104810005B46181A031C8346203B9C4600D59CE04F
:104820000023002251460092019363469940019172
:1048300051468140019B0091BB4200D983E000D1E9
:104840007EE0009A019B341C3D1CA41A9D416346E6
:10485000002B00DA9AE00026002702960397013623
:104860009E400396012686400296002800D171E002
:104870000099019AD30799464B464E081E435708A4
:10488000002301220CE0AF4201D1A6420AD8A41BAA
:10489000BD4124196D410138A4185D41002806D09E
:1048A000AF42F0D9013824196D410028F8D12022F7
:1048B000029E039F5B46524236196F4199185AD4A3
:1048C000281CC8402C1C5B46DC40002968DB041C0B
:1048D0008C40231C59468840021CB61A9F4103E0B5
:1048E000B0428CD90026002741464B1E9941002337
:1048F00000910193009A019B002554429D41331C75
:104900006340181C3B1C6B40191C009B019CC01889
:10491000614105B03CBC90469946A246AB46F0BD0D
:104920004346DB430C1C9846131C00215842A1410E
:104930005EE7002746428F4101214942884652E7FF
:10494000B14200D87DE70026002702960397002891
:1049500000D08DE7029E039FC6E720215346091A27
:10496000CB400022191C0023009201934B46834048
:104970000B4301935CE75A4620239B1A2A1C9A405A
:10498000201C131C5A46D04018439BE720260027C2
:10499000331A0026029603970127DF40039761E749
:1049A0005B4620215D46C91A031CAC40CB40191C54
:1049B000231C0B438EE7C046F0B545464E4657468E
:1049C000E0B4041C82B00D1C914698468B4262D81C
:1049D0005FD04146484600F09BF8291C061C201C6D
:1049E00000F096F82023311A5B428A46C81865D435
:1049F0004B4683401F1C4B468B401E1CAF4258D871
:104A000055D0A41BBD41002800DA77E00022002326
:104A10000092019301328240019201238B40009366
:104A200000293CD0FB079846404672087B080243A9
:104A3000012600270CE0AB4201D1A2420AD8A41AF9
:104A40009D4124196D410139A4197D41002906D0E9
:104A5000AB42F0D9013924196D410029F8D1202247
:104A60000098019953465242001969419E183AD460
:104A70002F1CF7405346DD40002E29DB3C1CB44080
:104A8000231C5446A7403A1C801A9941009001917A
:104A900005E082429DD900230024009301940098F0
:104AA000019902B01CBC90469946A246F0BDA342B3
:104AB000A7D90022002300920193B1E720224B46A0
:104AC000521AD3401A1C43468B401F1C174392E7CF
:104AD000534620245646E41A3B1CB540E3401C1CB8
:104AE0002B1C2343CDE7524620239B1A2A1C9A40B5
:104AF000271C131C5246D7401F43BBE7202300222C
:104B0000581A0023009201930132C240019284E7B7
:104B100010B5002903D1FEF785FF203002E0081C04
:104B2000FEF780FF10BDC046084B10B5041C002BDB
:104B300002D0002100E000BF054B1868836A002BFB
:104B400000D09847201CFBF779FFC046000000000A
:104B5000E4640000134B70B51D68041C1E1C002D7E
:104B600005D0AB69002B02D1281C00F065F80E4B74
:104B70009C4201D16C6808E00C4B9C4201D1AC68AE
:104B800003E00B4B9C4200D1EC680C22A35E002B8F
:104B900002D00E23E05E04E0092201203368404287
:104BA0001A6070BDD400002080640000A064000082
:104BB000C064000008B5024900F0AEF808BDC04668
:104BC00011520000002310B5041C03604360836091
:104BD00081814366C281036143618361191C08229C
:104BE0005C3000F0EAF8054B24626362044BA36278
:104BF000044BE362044B236310BDC046E14F000049
:104C000009500000415000006D50000070B568254B
:104C10004B1E5D430E1C291C743100F0D7F8041E96
:104C200008D000212A1C016046600C30A060683268
:104C300000F0C3F8201C70BD836913B5002B28D188
:104C40008364C3640365134B134A1B688262019338
:104C5000984201D101238361041C00F01FF86060B9
:104C6000201C00F01BF8A060201C00F017F80421A5
:104C7000E06000226068FFF7A5FFA068092101221B
:104C8000FFF7A0FFE06812210222FFF79BFF01233C
:104C9000A36113BDE4640000B54B0000F8B51D4BE3
:104CA000061C1D68AB69002B02D1281CFFF7C4FF4E
:104CB0004835AC686B68013B05D40C22A75E002F19
:104CC00010D06834F7E72B68002B06D1301C042184
:104CD000FFF79CFF2860002801D02D68E9E70C232E
:104CE000336016E00123201C5B42E3810233A38181
:104CF00067662760A760676027616761A7615C30AE
:104D0000391C082200F059F8201C6763A763A764C8
:104D1000E764F8BDE4640000F7B5041C071C002636
:104D200001914834002C16D06368A5680093009B5D
:104D3000013B00930DD4AB89012B08D90E22AB5E49
:104D4000013304D0381C291C019B98470643683561
:104D5000EDE72468E6E7301CFEBD00000E4B70B5A1
:104D600000251E1C0D4CE41AA410A54204D0AB0073
:104D7000F35898470135F8E700F000FF084B00258D
:104D80001E1C084CE41AA410A54204D0AB00F35832
:104D900098470135F8E770BDD8000020D800002002
:104DA000D8000020DC000020002310B5934203D07F
:104DB000CC5CC4540133F9E710BD031C8218934244
:104DC00002D019700133FAE770470000032370B571
:104DD000CC1C9C430834051C0C2C01D20C2405E08F
:104DE000002C03DA0C2300202B6042E08C42F9D324
:104DF000204A1368101C191C002913D00A68121BC2
:104E00000DD40B2A02D90A608B181FE08B4202D105
:104E10005A6802601BE04A685A600B1C17E00B1CC2
:104E20004968E9E7144E3368002B03D1281C00F0D1
:104E30003FF83060281C211C00F03AF8031C421C8B
:104E4000D0D00322C61C964386420AD11C60181C8F
:104E500007210B301A1D8843821A0AD051429950FB
:104E600007E0311A281C00F023F8431CBAD0331C89
:104E7000ECE770BDF0020020EC0200200FB40B4BF9
:104E800013B51C68002C05D0A369002B02D1201C8F
:104E9000FFF7D2FE05AB201CA168049A019300F035
:104EA0006FFA16BC08BC04B01847C046D4000020F6
:104EB00038B50023064C051C081C2360FBF7EAFDEF
:104EC000431C03D12368002B00D02B6038BDC046A3
:104ED000A8040020F7B51E1C3C4B041C1D680F1CC9
:104EE0000192002D05D0AB69002B02D1281CFFF7E1
:104EF000A3FE374B9C4201D16C6808E0354B9C42C5
:104F000001D1AC6803E0344B9C4200D1EC68019BBA
:104F1000022B58D8002E56DB281C211C00F078F9F3
:104F200000236360A361A3891B0603D5281C2169A4
:104F300000F0B8F98322A3899343A381019B022B3C
:104F400013D0002F25D1002E01D18026F600301C71
:104F500000F09EF9071E18D18020C00000F098F9DB
:104F6000071E10D10120404200E000200222A38948
:104F70001343A3810023A360231C473323602361D1
:104F80000123636121E08026F6008022A389134378
:104F9000A381019B012B05D1A389019A1A43734276
:104FA000A281A3610D4B0020AB62A289276027611B
:104FB0006661130709D503231A40534253415B42EC
:104FC0001E40A66001E001204042FEBDD40000204A
:104FD00080640000A0640000C0640000B54B0000C5
:104FE00038B50C1C0E25495F00F060FC002803DB7F
:104FF000636D1B18636503E0A289024B1340A38114
:1050000038BDC046FFEFFFFFF8B51E1C8B89051C9D
:105010000C1C171CDB0505D50E23C95E00220223DC
:1050200000F022F9A289054B281C1340A3813A1CE9
:105030000E23E15E331C00F03BF8F8BDFFEFFFFFED
:1050400038B50C1C0E25495F00F00EF9A389421CEF
:1050500003D1054A1340A38104E080225201134387
:10506000A381606538BDC046FFEFFFFF08B50E2382
:10507000C95E00F031F808BD0023C25C0133002A8C
:10508000FBD1581E7047002330B59A420DD0013A2B
:10509000C45CCD5CAC4202D1934202D1251C631B9F
:1050A00003E00133002CF3D1F8E7181C30BD0000F9
:1050B00038B5051C0020074C2060081C111C1A1C68
:1050C000FBF7DAFC431C03D12368002B00D02B60D4
:1050D00038BDC046A804002038B50023064C051C86
:1050E000081C2360FBF7A8FC431C03D12368002B9A
:1050F00000D02B6038BDC046A8040020F7B58A89CF
:10510000051C0C1C13075ED44B68002B02DC0B6CD7
:10511000002B1ADDE76A002F17D000232E682B60C2
:1051200080235B011A4001D0626D15E0281C216AC2
:105130000123B847021C431C0ED12B68002B0BD057
:105140001D2B01D0162B02D12E6000205EE04021E5
:10515000A3890B43A38159E0A3895B0706D5636844
:10516000D21A636B002B01D0236CD21A0023281CA7
:10517000216AE76AB847A389421C06D12A68002A37
:1051800003D01D2A01D0162A19D10022626022699B
:105190002260DB0405D5431C02D12B68002B00D113
:1051A0006065616B2E600029CFD0231C4433994287
:1051B00002D0281C00F076F80020606326E0402230
:1051C0001343A38122E00F69002FBED00B680F604C
:1051D000DB1B01930023920700D14B69A360019B65
:1051E000002BB2DD281C216A3A1C019BA66AB0473D
:1051F000002806DC40220120A38940421343A381FA
:1052000004E0019B3F181B1A0193E8E7FEBD000074
:1052100038B50B69051C0C1C002B01D100201CE0CB
:10522000002804D08369002B01D1FFF705FD0B4B4B
:105230009C4201D16C6808E0094B9C4201D1AC68EA
:1052400003E0084B9C4200D1EC680C22A35E002BCB
:10525000E4D0281C211CFFF751FF38BD80640000FA
:10526000A0640000C064000038B5051C0020074C95
:105270002060081C111C1A1CFBF7E8FB431C03D11F
:105280002368002B00D02B6038BDC046A804002046
:1052900008B5034B011C1868FFF798FD08BDC04610
:1052A000D400002030B500293ED004390B68002B13
:1052B00000DAC9181D4A1368141C002B02D14B6078
:1052C000116031E099420DD208680A189A4203D160
:1052D0001368C3180B6053684B60216024E08A4256
:1052E00003D8131C5A68002AF9D11D685C198C4236
:1052F0000BD10968691858181960904214D11068C8
:105300005268091819605A600EE08C4202D90C23C9
:10531000036009E008680C18944203D114685268CD
:10532000001908604A60596030BDC046F002002094
:10533000936810B5013B9360002B05DA9469A34292
:1053400008DBCBB20A2B05D01368581C106019700B
:10535000C8B201E000F0BEFA10BDF8B5061C0F1C83
:10536000141CD518AC4208D02178301C3A1CFFF729
:10537000DFFF0134431CF5D100E00020F8BD000040
:10538000F0B59FB0061C0F1C02920593002804D0B4
:105390008369002B01D1FFF74FFC794B9F4201D16C
:1053A000776808E0774B9F4201D1B76803E0764BFE
:1053B0009F4200D1F768BB891B070AD53B69002BC8
:1053C00007D0002306AD6B6120336B761033AB76CC
:1053D0003DE0301C391C00F0D5FA0028F1D0012046
:1053E0004042CAE0059A111D12680591002A7EDB31
:1053F0000992013423782E2B00D189E0217863486B
:10540000032200F08BFB002808D0604B0134C01A47
:1054100040238340181C2B68184328602178631CA4
:105420005B4806220293297600F078FB002800D121
:1054300091E0584B002B00D084E00722059B0733F6
:105440009343083305936B69039A9B186B61029C25
:105450002378002B04D1029BE31A049311D003E0BC
:10546000252BF8D00134F3E7049B301C391C029A39
:10547000FFF773FF431C7BD06A69049B9446634427
:105480006B612378002B73D00122002352426A60A3
:1054900002A95432521801342B60EB60AB601370D8
:1054A000AB6521783C48052200F038FB002809D084
:1054B000394B0134C01A01238340181C2B68184350
:1054C0002860EEE72B68DA0604D55322202102A8D3
:1054D000121811701A0704D553222B2102A8121892
:1054E000117022782A2A00D17CE7099B05E05242FC
:1054F000EA60022213432B607BE72278303A092AC4
:1055000004D80A214B4301349B18F6E7099371E74D
:1055100063782A2B09D1059B02341A1D1B6805925A
:10552000002B0DDA01235B420AE0002301342278CC
:10553000303A092A04D80A214B4301349B18F6E774
:1055400007935BE705AB0093301C291C3A1C134BF7
:1055500000E000BF07E005AB0093301C291C3A1C9B
:105560000E4B00F08BF80390039B013300D06AE7E9
:10557000BB895B0600D532E70B981FB0F0BDC04673
:1055800080640000A0640000C0640000EE640000BD
:10559000F264000000000000E86400005B530000BB
:1055A000F7B5171C01930A698B6800900C1C934295
:1055B00000DA131C221C3B6043321278002A01D00F
:1055C00001333B6023689B0602D53B6802333B6096
:1055D000062523681D401ED0231C43331B785A1E0A
:1055E0009341226892061CD53020E1184031C870E2
:1055F000211C5A1C45310978A21840320233D1705F
:105600000FE0221C0123009801991932089EB0472F
:10561000431C0ED00135E3683A689B1A9D42F0DBCB
:10562000DAE7221C009801994332089DA847431CE1
:1056300002D10120404220E006232068E1683A6858
:1056400003400025042B03D18D1AEB43DB171D40CB
:10565000A3682269934201DD9B1AED180027AF422F
:105660000ADA221C0123009801991A32089EB047D9
:10567000431CDED00137F2E70020FEBDF0B58BB051
:1056800006920A1C43320793059004920A7E0C1C72
:10569000109B6E2A00D1A8E011D8632A22D009D825
:1056A000002A00D1B2E0582A00D0C2E045310A7089
:1056B0007C4A4FE0642A1DD0692A1BD0B9E0732AC6
:1056C00000D1A7E009D86F2A29D0702A00D0B0E015
:1056D000202209680A43226037E0752A1FD0782A01
:1056E00033D0A6E00E1C1A684236111D19601368EB
:1056F0003370A1E021681A68080606D4490604D56B
:10570000111D19600023D55E02E0111D1960156896
:10571000002D3BDA2D23049A6D42137036E0216888
:105720001A68080606D4490604D51568111D1960C3
:10573000ADB202E0111D196015685A4B227E039329
:105740000A276F2A1DD108271BE0221C7821453229
:105750001170554A19680392081D226818600D6877
:10576000100602D4500600D5ADB2D30702D52023CF
:105770001A4322601027002D03D1202322689A4368
:105780002260231C002243331A7002E00A27454B93
:1057900003936368A360002B03DB04222168914319
:1057A0002160002D02D1049E002B0ED0049E281CE7
:1057B000391CFEF73BF8039B013E5B5C281C3370F1
:1057C000391CFDF7ADFF051EF1D1082F09D1236863
:1057D000DB0706D563682269934202DC3023013E71
:1057E0003370049B9B1B23612BE009681A68080631
:1057F00007D4490605D5111D19601368A28A1A80BD
:1058000004E0111D1960136862691A600023049E88
:10581000236116E01A68111D196016680021301CFA
:10582000626800F07BF9002801D0801B606063682B
:1058300003E0261C42363270012323610023049AC0
:105840001370079B05980093211C069B09AAFFF77C
:10585000A7FE431C02D10120404221E023690598A4
:105860000699321C079DA847431CF4D023689B0768
:1058700005D4099BE068984212DA181C10E0002554
:10588000E368099A9B1A9D42F3DA221C01230598CA
:1058900006991932079EB047431CDCD00135EFE76B
:1058A0000BB0F0BDF96400000A65000038B5051CB6
:1058B0000020074C2060081C111C1A1CFBF7C8F8BC
:1058C000431C03D12368002B00D02B6038BDC04699
:1058D000A804002070B5051C0E1C141C002804D060
:1058E0008369002B01D1FFF7A7F9234B9C4201D11B
:1058F0006C6808E0214B9C4201D1AC6803E0204B6E
:105900009C4200D1EC68A369A360A3891B070AD558
:105910002369002B07D023682269F6B2981A6369BD
:1059200098420FDB08E0281C211C00F02BF800280F
:10593000F1D0012040421DE0281C211CFFF768FC2B
:105940000028F6D1A3680130013BA36023685A1CEC
:1059500022601E706369984205D0A389301CDB0762
:1059600008D50A2E06D1281C211CFFF751FC00285F
:10597000DFD1301C70BDC04680640000A064000010
:10598000C0640000354B70B51D68061C0C1C002D52
:1059900005D0AB69002B02D1281CFFF74DF9304B25
:1059A0009C4201D16C6808E02E4B9C4201D1AC684E
:1059B00003E02D4B9C4200D1EC68A3899AB21107F9
:1059C00023D4D10607D40922012032603732134391
:1059D000A381404240E0530713D5616B002908D0F2
:1059E000231C4433994202D0301CFFF75BFC002398
:1059F00063632422A3899343A38100236360236903
:105A000023600822A3891343A3812369002B0BD1B0
:105A1000A023A2899B00134080229200934203D0CE
:105A2000301C211C00F022F80123A289134005D06C
:105A30000023A36063695B42A36103E0910700D484
:105A40006369A36000202369834205D1130603D54F
:105A500040231A43A281013870BDC046D400002003
:105A600080640000A0640000C0640000F0B58B8971
:105A700091B09B0706D50B1C47330B600B610123CC
:105A80004B6145E00C1C0E23C95E061C002904DA9C
:105A90008023A5891D4010D10CE001AA00F04AF82E
:105AA0000028F5DBF023029D1B021D40194BED1869
:105AB0006B425D418027FF0001E000254027301C3C
:105AC000391CFFF783F900280CD1A3899A051FD44C
:105AD00002221343A381231C473323602361012344
